:020000040000fa
:080000000002040000000000f2
:020000040000fa
:100400008f8820000e7f22000e018800000000006f
:100410000c000700a0f02000010020000f000700e2
:10042000000020000000e000020032000000020096
:10043000000000003e0d0200000000000040da0055
:100440000000fe00002520000000e0000200320055
:10045000002020009001880000000600a102880012
:10046000800078000000eb001a003700e2804000b6
:1004700054a0b4009101ba00e280400054a0b4003e
:100480009102ba00e280400054a0b4000002eb00e8
:10049000472bde00f507b200a6018800602ce100c2
:1004a00008003a000049eb000201e80002003900b0
:1004b0003420ec0002f0a0008301e900f9ff3e00c7
:1004c000040037006128e100010032000082eb00e7
:1004d000040007001101ba000200e000e3ff3a0047
:1004e0000000060004d0a300e20f49001c00390000
:1004f000810278003549ba000201e80002003900a3
:100500003420ec0002f0a0008301e9000f0032006b
:100510002549ba000201e800020039003420ec004d
:1005200002f0a0008301e900080032000400e000ae
:100530000600320015c9ba000201e80002003900c5
:100540003420ec0002f0a0008301e9008180e80083
:1005500054a0b4000300e000e2ff3a0000000600ef
:100560009102ba00055978008301e900f7ff3200d3
:10057000c82ade00055978008301e900f3ff320044
:100580000400e000f1ff320011d9ba00eeff37009d
:080590000040da000000fe004b
:020000040000fa
:020000040002f8
:04aff400ffff00005b
:020000040000fa
:020000040002f8
:04aff8002efa00002d
:020000040000fa
:020000040002f8
:04affc00d93f000039
:020000040000fa
:10000800c8020000c8020000c8020000c8020000c0
:10001800c8020000c8020000c8020000c8020000b0
:10002800c8020000c8020000c8020000c8020000a0
:10003800c8020000c8020000c8020000c802000090
:10004800c8020000c8020000c8020000e80d000055
:10005800c8020000c8020000c8020000c802000070
:10006800c8020000c8020000c8020000c802000060
:10007800c8020000c8020000c8020000c802000050
:10008800c8020000c8020000c8020000c802000040
:10009800c8020000c8020000d40d0000c802000019
:1000a800c8020000c8020000c8020000c802000020
:1000b800c8020000c8020000c8020000c802000010
:1000c800c8020000c8020000c8020000c802000000
:1000d800c8020000c8020000c8020000c8020000f0
:1000e800c8020000c8020000c8020000c8020000e0
:1000f800c8020000c8020000c8020000c8020000d0
:10010800c8020000c8020000c8020000c8020000bf
:10011800c8020000c8020000c8020000c8020000af
:10012800c8020000c8020000c8020000c80200009f
:10013800c8020000c8020000c8020000c80200008f
:10014800c8020000c8020000c8020000c80200007f
:10015800c8020000c8020000c8020000c80200006f
:10016800c8020000c8020000c8020000c80200005f
:10017800c8020000c8020000c8020000c80200004f
:10018800c8020000c8020000c8020000c80200003f
:10019800c8020000c8020000c8020000c80200002f
:1001a800c8020000c8020000c8020000c80200001f
:1001b800c8020000c8020000c8020000c80200000f
:1001c800c8020000c8020000c8020000c8020000ff
:1001d800c8020000c8020000c8020000c8020000ef
:1001e800c8020000c8020000c8020000c8020000df
:0801f800c8020000c80200006b
:020000040000fa
:10020800c8020000c8020000c8020000c8020000be
:10021800c8020000c8020000c8020000c8020000ae
:10022800c8020000c8020000c8020000c80200009e
:10023800c8020000c8020000c8020000c80200008e
:10024800c8020000c8020000c8020000e80d000053
:10025800c8020000c8020000c8020000c80200006e
:10026800c8020000c8020000c8020000c80200005e
:10027800c8020000c8020000c8020000c80200004e
:10028800c8020000c8020000c8020000c80200003e
:10029800c8020000c8020000d40d0000c802000017
:1002a800c8020000c8020000c8020000c80200001e
:1002b800c8020000c8020000c8020000c80200000e
:1002c800c8020000c8020000c8020000c8020000fe
:1002d800c8020000c8020000c8020000c8020000ee
:1002e800c8020000c8020000c8020000c8020000de
:1002f800c8020000c8020000c8020000c8020000ce
:10030800c8020000c8020000c8020000c8020000bd
:10031800c8020000c8020000c8020000c8020000ad
:10032800c8020000c8020000c8020000c80200009d
:10033800c8020000c8020000c8020000c80200008d
:10034800c8020000c8020000c8020000c80200007d
:10035800c8020000c8020000c8020000c80200006d
:10036800c8020000c8020000c8020000c80200005d
:10037800c8020000c8020000c8020000c80200004d
:10038800c8020000c8020000c8020000c80200003d
:10039800c8020000c8020000c8020000c80200002d
:1003a800c8020000c8020000c8020000c80200001d
:1003b800c8020000c8020000c8020000c80200000d
:1003c800c8020000c8020000c8020000c8020000fd
:1003d800c8020000c8020000c8020000c8020000ed
:1003e800c8020000c8020000c8020000c8020000dd
:0803f800c8020000c802000069
:020000040000fa
:10059800736500006e64000020520000657300005f
:1005a8006574000020500000686f0000746f000040
:1005b8000a00000073730000737300007373000077
:1005c800737300007373000073730000737300008b
:1005d800730a000000730000656e000064200000cc
:1005e8005265000073650000742000005068000028
:1005f8006f7400006f200000456e0000640a000060
:1006080000730000656e000064200000476500006c
:10061800742000004c6500006e67000074680000dc
:100628000a000000736500006e64000020470000a7
:1006380065740000204c0000656e000067740000bf
:100648006820000065720000726f0000720a0000e6
:10065800000a0000000a0000736500006e640000d4
:100668002047000065740000204c0000656e000003
:100678006774000068200000656e0000640a0000ce
:1006880000700000686f0000746f00005f6c00006d
:10069800656e00003d0000000a530000656e000012
:1006a8006420000073740000617200007420000070
:1006b800706800006f7400006f0a000000530000ab
:1006c800656e000064200000737400006172000011
:1006d80074200000706800006f7400006f20000034
:1006e80045720000726f0000720a0000005300009b
:1006f800656e0000642000007374000061720000e1
:1007080074200000706800006f7400006f20000003
:10071800456e0000640a0000007300007461000068
:1007280072740000206700006574000020700000eb
:10073800686f0000746f0000200a0000000a0000c3
:100748007373000073730000737300007373000009
:10075800737300007373000073730000730a000062
:1007680000650000727200006f720000200d00002a
:100778000a0000004461000074610000732000005a
:100788000d0a0000000a00002067000065740000e0
:1007980020700000686f0000746f00002065000082
:1007a8006e6400000a000000536500006e640000db
:1007b80020730000746f0000702000007068000053
:1007c8006f7400006f2000000a00000053650000ed
:1007d8006e64000020730000746f00007020000039
:1007e800706800006f7400006f20000065720000e0
:1007f800726f0000720a000000530000656e00006e
:1008080064200000737400006f7000002070000006
:10081800686f0000746f0000206500006e640000bf
:100828000a000000536500006e640000207000009c
:10083800686f0000746f000020530000697a0000a0
:10084800650a000000530000656e00006420000087
:10085800706800006f7400006f200000736900006a
:100868007a65000020450000727200006f72000077
:100878000a000000536500006e640000205000006c
:10088800686f0000746f000020530000697a000050
:1008980065200000456e0000640a00000073000037
:1008a800656e000064200000436c00006561000074
:1008b8006e2000006361000063680000650a0000a4
:1008c80000730000656e000064200000436c0000a7
:1008d800656100006e20000063610000636800002d
:1008e8006520000065720000726f0000720a000047
:1008f80000730000656e000064200000436c000077
:10090800656100006e2000006361000063680000fc
:1009180065200000206500006e6400000a000000e9
:10092800506800006f7400006f200000496e0000de
:1009380069740000200a000000500000686f000081
:10094800746f0000204900006e69000074200000e8
:10095800456e0000640a000000500000686f000047
:10096800746f0000204900006e69000074200000c8
:1009780045720000726f0000720a00000053000008
:10098800656e000064200000436f00006d70000079
:10099800726500007373000020500000686f00004b
:1009a800746f00000a000000536500006e640000c8
:1009b800204300006f6d0000707200006573000036
:1009c80073200000706800006f7400006f20000042
:1009d80045720000726f0000720a000000530000a8
:1009e800656e000064200000436f00006d70000019
:1009f800726500007373000020500000686f0000eb
:100a0800746f0000204500006e6400000a000000ba
:100a18003031000032330000343500003637000032
:100a280038390000414200004344000045460000b8
:020000040000fa
:100a38000200fa00004f78001e40780066030700a5
:100a48000080fa00000006000600fa00100798006f
:100a5800210798000000eb00000f78000000eb0071
:100a6800000f7800060037009e0078001e009000f6
:100a78000080400010407800edff07001e0fe800de
:100a88002e0090009e0f1000f7ff39000080fa003a
:100a9800000006000a00fa00881f78002007980066
:100aa800310798006000b800008fbe006000b800f1
:100ab800008fbe000a0037001e0078008000780012
:100ac8002e0090000084400072030700004c78005c
:100ad80010002000010020001e0f40005e97480013
:100ae8003e00900001002000be0f5000ae8f58005d
:100af800f1ff3e002e0090009040780060c7b300e0
:100b080080cf500003003a001100200041079800f0
:100b1800020037000000eb00400798004e009000ec
:100b28004f0478000080fa00000006000400fa0074
:100b3800008fbe0002003700560307008d03070030
:100b48000080eb008080eb001e0f40005e9748009d
:100b58000080eb008080eb00be0f1000ae8f180005
:100b6800f5ff3a000000eb000080fa0000000600e4
:100b78001000fa000040eb00204798000040eb000e
:100b8800104798000040eb00004f7800c02c280068
:100b9800610307005100200000802000aaff070021
:100ba8000040eb00204798001b0037006300470017
:100bb800a1002000b7ff07000040eb001047980095
:100bc8000d0037001e4090008080fb006300470046
:100bd800614178001e4090008080fb001e80fb0071
:100be80000804000824078002f0407001e409000db
:100bf8000040e800104798001e409000e94f500060
:100c0800f0ff36001e4090001e4f40002e4090001e
:100c18000040e800204798002e409000e14f500027
:100c2800e2ff3600e02d28003b0307000040eb0000
:100c380020479800070037002e4090000080fb00f6
:100c48002d0407004b0307002e4090000040e800e9
:100c5800204798002e409000f34f5000f6ff3600d2
:100c68000040eb0020479800110037002e4090000c
:100c78008080fb0063004700614178002e409000af
:100c88008080fb00508020000080400010407800e9
:100c9800804f5100030032000000eb0070079800fd
:100ca800180037002e4090000040e80020479800c8
:100cb8002e409000e34f5000ecff36000040eb0060
:100cc80020479800080037002e4090008080fb00e5
:100cd8006300470061407800260307002e4090001b
:100ce8000040e800204798002e409000e94f50004f
:100cf800f5ff3600f02e280007030700100020003b
:100d0800700798007e0090000080fa00000006003e
:100d18000a00fa000040eb00004f7800503028002d
:100d2800fd020700510020003081200046ff070027
:100d38000e00e8009100200056ff07000004e000c4
:100d480003003a000000eb00400798002f0037002e
:100d58000040eb00004f7800130037009e80fb0036
:100d68000e00e80061407800e10207009e80fb0069
:100d78000e00e800614178009e80fb008081200021
:100d88000080400010407800804f5100050032007c
:100d980060312800e00207000000eb0040079800df
:100da8001a0037001e4fe80060c0b3009e4f1000c5
:100db800eaff36000e00e800804890000e00e800c8
:100dc8007040900014000700d0322800d2020700bb
:100dd8000040eb00004f7800050037001e80fb0044
:100de8008e00e80060c07800e20207001e4fe800ad
:100df80080c0b3009e4f1000f8ff3600f032280084
:100e0800c502070010002000400798004e0090001f
:100e18000080fa00000006000600fa00404798002b
:100e2800514798004e4090000080fb00cd00dd0047
:100e38005e4090000080fb0000804000cf80de0014
:100e4800008fbe004e4090002be8b7005e40900037
:100e58002ce8b7001e00be0010448800214488001a
:100e680050342800ac020700104480002144800060
:100e78009f0207000080fa00000006000800fa0040
:100e88000040eb00004f780000352800a202070060
:100e9800a100200090802000ebfe07000e00e80073
:100ea80051002000fbfe07000004e00003003a00a8
:100eb8000000eb00300798001d0037000040eb00f1
:100ec800004f7800130037009e80fb000e00e800fa
:100ed80061407800a70207009e80fb000e00e80032
:100ee800614178009e80fb00e08020000080400087
:100ef80010407800804f510005003200303628003d
:100f0800850207000000eb00300798000800370052
:100f18001e4fe80040c0b3009e4f1000eaff3600a5
:100f2800b03728007c020700100020003007980026
:100f38003e0090000080fa0000000600dc07fa007e
:100f48006000b8002007980031079800104480001e
:100f580021448000e200200003002000021f40001e
:100f6800039748006000b8002007980031079800f0
:100f78000c0037002e009000be009000f281200087
:100f880002004000104078007a0207002e0090000e
:100f9800be00900061004000e080480020079800f3
:100fa800310798002e019000be019000f00020004b
:100fb80001002000800f5100818f5900edff36009d
:100fc800103928005402070001012000f081200098
:100fd8009dfe070068004700017d2000adfe070068
:100fe8006000b80020079800310798001300370008
:100ff8002e009000be0090006801470000004100ec
:10100800904078002e009000270307002e009000e3
:10101800be009000680147000000410010407800c1
:10102800540207002e009000be00900061004000ae
:10103800e080480020079800310798002e019000b2
:10104800be019000f07c200001002000800f5100bc
:10105800818f5900e6ff3600303a28002e0207003b
:101068006000b80020079800310798001900370081
:101078002e009000be00900068014700000041006b
:10108800904178002e009000be009000f28220006f
:10109800020040001040780080cf51000700320065
:1010a800503b28001c0207006000b800827d200029
:1010b8000e0141000089be00160037002e00900086
:1010c800be00900061004000e080480020079800c2
:1010d800310798002e019000be01900040002000ca
:1010e80001002000800f5100818f5900e0ff360079
:1010f800e03b280008020700703c280006020700b1
:101108001000200001002000827d20000e01410017
:101118000089be00837d20008e8141001300be003f
:101128000080fa00000006000a00fa002007980074
:1011380052ff07000004e0000d003200f4fe070033
:101148000004e0000a0032006000b800008fbe0012
:101158001e00be00e00f5000e08f580004003a0067
:101168001e00be00300798004107980003003700b2
:101178006000b80030079800410798003e009000d2
:10118800ce0090000080fa00000006000200fa007d
:10119800000f780039ff0700ddfe07000080fa0025
:1011a800000006000600fa001007980021079800c2
:1011b8000000eb00000f78000000eb00000f780043
:1011c800070037001e007800800078001e0090009d
:1011d80000804000104078007f0107001e0fe800e3
:1011e8009e0078002e009000808f5000f5ff390097
:1011f8000080fa00000006000800fa00881f780046
:1012080010079800210798000000eb00000f7800f5
:101218000000eb00000f7800060037009e00780001
:101228001e009000008440009a010700004c7800de
:101238001e0fe8002e0090009e0f1000f7ff3900e7
:101248001e0090009040780060c7b30080cf500027
:1012580003003a0010002000300798000200370011
:101268000000eb00300798003e0090004f04780023
:101278000080fa00000006000800fa00803d2800ff
:10128800a50107005100200090832000eefd070013
:101298000e00e80051002000fefd07000004e000f9
:1012a80003003a000000eb003007980019003700ef
:1012b8000040eb00004f78000f0037009e80fb00d5
:1012c8000e00e800614178009e80fb00e08320006a
:1012d8000080400010407800804f51000500320027
:1012e800a03e28008c0107000000eb0030079800a2
:1012f800080037001e4fe80040c0b3009e4f1000a2
:10130800eeff36001040280083010700100020007f
:10131800300798003e0090000080fa0000000600a8
:101328000800fa00604128007b010700a1002000a6
:1013380030842000c4fd07000e00e80051002000a2
:10134800d4fd07000004e00003003a000000eb00b1
:1013580030079800190037000040eb00004f780074
:101368000f0037009e80fb000e00e8006141780006
:101378009e80fb00d0842000008040001040780050
:10138800804f5100050032007042280062010700ba
:101398000000eb0030079800080037001e4fe800f7
:1013a80040c0b3009e4f1000eeff3600e043280017
:1013b8005901070010002000300798003e009000f7
:1013c8000080fa00000006000800fa0030452800f6
:1013d8005101070051002000608720009afd070096
:1013e8000e00e80051002000aafd07000004e000fc
:1013f80003003a000000eb0030079800190037009e
:101408000040eb00004f78000f0037009e80fb0083
:101418000e00e800614178009e80fb00b087200044
:101428000080400010407800804f510005003200d5
:1014380050462800380107000000eb0030079800ec
:10144800080037001e4fe80040c0b3009e4f100050
:10145800eeff3600d04728002f01070010002000bb
:10146800300798003e0090000080fa000000060057
:101478000800fa000e00e800510020005eff070097
:101488000000e00003003a000000eb00300798007d
:10149800150037000040eb00004f78000d003700c2
:1014a8009e80fb000e00e800614178009e80fb00f2
:1014b800408320000080400010407800804f510099
:1014c800030032000000eb003007980006003700e8
:1014d8001e4fe80040c0b3009e4f1000f0ff3600da
:1014e80010002000300798003e0090000080fa00ad
:1014f800000006000800fa00710020002085200086
:1015080051fd07000e00e800510020003aff0700d7
:101518000000e00003003a000000eb0030079800ec
:10152800150037000040eb00004f78000d00370031
:101538009e80fb000e00e800614178009e80fb0061
:10154800908520000080400010407800804f5100b6
:10155800030032000000eb00300798000600370057
:101568001e4fe80040c0b3009e4f1000f0ff360049
:1015780010002000300798003e0090000080fa001c
:10158800000006000200fa0040492800e2000700b7
:1015980063ff07000004e0000e00320036ff07007a
:1015a8000004e0000b003200110007000004e00016
:1015b8000800320084ff07000004e0000500320044
:1015c800104a2800d400070010002000000f7800ff
:1015d80004003700104b2800cf0007000000eb0084
:1015e800000f78001e0078000080fa000000060056
:1015f8000800fa00304c2800c700070091002000be
:10160800e085200010fd07000e00e80051002000d2
:10161800f9fe07000000e00003003a000000eb00bc
:1016280030079800190037000040eb00004f7800a1
:101638000f0037009e80fb000e00e8006141780033
:101648009e80fb00708620000080400010407800db
:10165800804f510005003200804d2800ae00070081
:101668000000eb0030079800080037001e4fe80024
:1016780040c0b3009e4f1000eeff3600304f2800e8
:10168800a500070010002000300798003e009000d9
:101698000080fa00000006000800fa00710020002f
:1016a800c0862000e8fc07000e00e800510020007a
:1016b800d1fe07000000e00003003a000000eb0044
:1016c80030079800150037000040eb00004f780005
:1016d8000d0037009e80fb000e00e8006141780095
:1016e8009e80fb001087200000804000104078009a
:1016f800804f5100030032000000eb0030079800d3
:10170800060037001e4fe80040c0b3009e4f10008f
:10171800f0ff360010002000300798003e009000cf
:101728000080fa00000006000400fa002047980034
:10173800314798000080fa00000006000000fa0017
:1017480000012000c0118800800028008011880056
:10175800004022009011880097c0a80087c0a90007
:101768000080fa00000006000000fa000000eb000c
:10177800a01188000080fa00000006000600fa00a8
:1017880010079800020037001e407800120007007a
:101798001e00900010407800004f78001e4078002e
:1017a800404798004e4090000004e00002003200dc
:1017b80010c0b300404798004e4090009e00900033
:1017c8008100e800110798000004e000eeff3a00ed
:1017d8000080fa00000006000200fa00004f7800be
:1017e80033c2bf00614060000004e000fcff32002b
:1017f8001e80fb00a01188000080fa00000006008f
:101808000400fa00204798002e409000004f78000e
:101818002e4090000080fb004400de006f40600016
:10182800204798002e4090008080fb00c050280080
:1018380061407800e8ff07009e4078006fc06000b4
:10184800204798002e4090008080fb00c050280060
:1018580061407800e0ff07000080fa000000060001
:101868000400fa00100798001e0090004800de00ef
:10187800104798001e009000004f78001e4090000e
:10188800dfff07001e407800ddff07000080fa0038
:10189800000006000200fa0032c2bf00614060008a
:1018a8000004e000fcff3200b0118000004f780017
:1018b8001e4078000080fb000080fa00000006004f
:1018c8000000fa0000012000401188009560a8007f
:1018d8008560a90080002800001188002062a80007
:1018e80000402000101188000080fa000000060067
:1018f8000200fa00004f780023c2bf006140600078
:101908000004e000fcff32001e80fb00201188006c
:101918000080fa00000006000600fa001007980090
:10192800020037001e407800f1ff07001e009000fb
:1019380010407800004f78001e407800404798001b
:101948004e4090000004e0000200320010c0b300d6
:10195800404798004e4090009e0090008100e800ab
:10196800110798000004e000eeff3a000080fa003a
:10197800000006000400fa00204798002e4090005e
:10198800004f78002e4090000080fb004400de00ed
:101998006f406000204798002e4090008080fb0038
:1019a800c050280061407800d1ff07009e407800b1
:1019b8006fc06000204798002e4090008080fb0098
:1019c800c050280061407800c9ff07000080fa0075
:1019d800000006000400fa00100798001e0090009e
:1019e8004800de00104798001e009000004f780065
:1019f8001e409000dfff07001e407800ddff070053
:101a08000080fa00000006000800fa00200798008d
:101a1800310798002e009000be0090004008de00bc
:101a280001002000100798002e009000000f780099
:101a38001e009000e7ff07001e007800e5ff070082
:101a48000080fa00000006000200fa0022c2bf006f
:101a5800614060000004e000fcff320030118000ab
:101a6800004f78001e4078000080fb000080fa00dc
:101a7800000006000c00fa0000402200410f200080
:101a8800510107000000eb00203a88002174200073
:101a9800620420007305200082487800834878009b
:101aa80042c7a900d16a20009140780000ccb30059
:101ab80000c060003040b300ade6b700316c2000d4
:101ac8009140780000ccb30000c06000b040b30083
:101ad800c3e6b700216c20009140780000ccb30029
:101ae80000c06000a040b300c2e6b700c16a200091
:101af8009140780000ccb30000c060000024a00032
:101b0800ace6b700416a20009140780000ccb300f1
:101b180000c060006041b300a4e6b700916d2000ea
:101b28009140780000ccb30000c060003040b300a2
:101b3800d9e6b700616a20009140780000ccb30074
:101b480000c060008041b300a6e6b700716d2000b8
:101b58009140780000ccb30000c060005040b30052
:101b6800d7e6b70021742000620420007305200026
:101b7800824878008348780042c7a8000060fe00c9
:101b880040a7a800e862a900ec62a8004cff070083
:101b9800eafe0700d20007000060fe00feff3700e3
:101ba8003200f800881f780008202000980188007b
:101bb8004f0478000000fa0087c0a9000080fa00ee
:101bc8003200f900004006003600f800809fbe0091
:101bd800829fbe00849fbe00869fbe003200f80030
:101be80000202000900188000400fa008560a90008
:101bf8003011800086e8b7006188200091407800a5
:101c080010c3b30080cf500005003a00c4fd0700a0
:101c180077fe0700ecfd070098fc07003cfc070076
:101c2800618820009140780020c3b30080cf500025
:101c380001003a00c1fc070061882000914078004b
:101c480030c3b30080cf50000f003a006000b800e6
:101c5800008fbe00070037001e007800260007002e
:101c680044ff070010002000010020001e0f400064
:101c78005e974800703e200001002000be0f100053
:101c8800ae8f1800f4ff36000080fa003200f90029
:101c98004f03be004f02be004f01be004f00be0002
:101ca8003600f900004006000600fa001007980008
:101cb80041479800dd62a90060c0b30096000700a4
:101cc800dd62a800dd62a90020c0b3009200070011
:101cd8001e0090004800de008f0007001e009000e4
:101ce8008d0007004e4090008b000700dd62a800c1
:101cf8000080fa00000006000400fa0010079800af
:101d0800dd62a90050c0b3008300070090000700ff
:101d1800004f7800dd62a8001e80fb0061006000b3
:101d28000004e000f6ff3a00dd62a90030c0b3000d
:101d3800790007001e0090004800de0076000700ca
:101d48001e009000740007008100070010479800eb
:101d5800dd62a8001e4090000080fb000080fa00b1
:101d6800000006000a00fa00881f78002007980083
:101d78003107980042079800dd62a90050c0b300ff
:101d88006500070072000700004f7800dd62a800b8
:101d98001e80fb00610060000004e000f6ff3a00ce
:101da800dd62a90030c0b3005b0007002e00900080
:101db8004800de00580007002e009000560007007b
:101dc8000000eb0010079800080037009e00900004
:101dd8003e009000008440005d000700004c780041
:101de8001e0090000000e800100798009e00900078
:101df8004e009000808f5000f4ff3900dd62a8008b
:0c1e08004f0478000080fa000000060083
:020000040000fa
:101e140086080000020000008000000000080000a6
:101e240080000000820000005600260000007600ba
:101e3400002600005600360001007600003600003f
:101e44000056000034010000760034000004000055
:101e540000560000320c00000a00000000000000e0
:101e64000000000000ff7600003200000076000051
:101e740054000000560036000103760000360000ce
:101e8400005600003105040001001900110076001d
:101e940000310000005600003e03000001007600ff
:101ea400003e00000056000031050100011204004c
:101eb4008076000031000000560024000301760003
:101ec40000240000005600003601030076003600ae
:101ed40000000000800800000600000080000000f0
:041ee40000000000fa
:020000040000fa
:101ee8000000fa00e013200010128800000028000b
:101ef80000128800e013200010138800000028005a
:101f080000138800dd62a800d962a9008820a80013
:101f18000080fa00000006000400fa00204798003c
:101f28008820a90040138000004f78002e409000c0
:101f38000080fb004013880088c0bf00624060003a
:101f48000004e000fcff32000080fa0000000600f8
:101f58000000fa000040eb00efff0700401380008c
:101f68000080fb000080fa00000006000400fa0070
:101f78002047980040c0b30010479800a0cfb30096
:101f8800004f78001e4fe9001e04e000fdff3a00f4
:101f98001e4090000040e900104798001e40900045
:101fa8000004e000f5ff3a002e4090000040e900f0
:101fb800204798002e4090000004e000edff3a0012
:081fc8000080fa000000060091
:020000040000fa
:101fd000f03fb1000180b10006003500ee030900ba
:101fe00000000000403fb1000180b100fbff3d0058
:101ff0001000b000203fb000020035000080090052
:082000000000000000000600d2
:00000001FF
